{"abi":[{"type":"fallback","stateMutability":"payable"},{"type":"receive","stateMutability":"payable"},{"type":"function","name":"ANY_FN_SEL","inputs":[],"outputs":[{"name":"","type":"bytes4","internalType":"bytes4"}],"stateMutability":"view"},{"type":"function","name":"ANY_KEYHASH","inputs":[],"outputs":[{"name":"","type":"bytes32","internalType":"bytes32"}],"stateMutability":"view"},{"type":"function","name":"ANY_TARGET","inputs":[],"outputs":[{"name":"","type":"address","internalType":"address"}],"stateMutability":"view"},{"type":"function","name":"CALL_TYPEHASH","inputs":[],"outputs":[{"name":"","type":"bytes32","internalType":"bytes32"}],"stateMutability":"view"},{"type":"function","name":"DOMAIN_TYPEHASH","inputs":[],"outputs":[{"name":"","type":"bytes32","internalType":"bytes32"}],"stateMutability":"view"},{"type":"function","name":"EMPTY_CALLDATA_FN_SEL","inputs":[],"outputs":[{"name":"","type":"bytes4","internalType":"bytes4"}],"stateMutability":"view"},{"type":"function","name":"ENTRY_POINT","inputs":[],"outputs":[{"name":"","type":"address","internalType":"address"}],"stateMutability":"view"},{"type":"function","name":"EXECUTE_TYPEHASH","inputs":[],"outputs":[{"name":"","type":"bytes32","internalType":"bytes32"}],"stateMutability":"view"},{"type":"function","name":"MULTICHAIN_NONCE_PREFIX","inputs":[],"outputs":[{"name":"","type":"uint16","internalType":"uint16"}],"stateMutability":"view"},{"type":"function","name":"approvedImplementationCallers","inputs":[{"name":"implementation","type":"address","internalType":"address"}],"outputs":[{"name":"","type":"address[]","internalType":"address[]"}],"stateMutability":"view"},{"type":"function","name":"approvedImplementations","inputs":[],"outputs":[{"name":"","type":"address[]","internalType":"address[]"}],"stateMutability":"view"},{"type":"function","name":"approvedSignatureCheckers","inputs":[{"name":"keyHash","type":"bytes32","internalType":"bytes32"}],"outputs":[{"name":"","type":"address[]","internalType":"address[]"}],"stateMutability":"view"},{"type":"function","name":"authorize","inputs":[{"name":"key","type":"tuple","internalType":"struct Delegation.Key","components":[{"name":"expiry","type":"uint40","internalType":"uint40"},{"name":"keyType","type":"uint8","internalType":"enum Delegation.KeyType"},{"name":"isSuperAdmin","type":"bool","internalType":"bool"},{"name":"publicKey","type":"bytes","internalType":"bytes"}]}],"outputs":[{"name":"keyHash","type":"bytes32","internalType":"bytes32"}],"stateMutability":"nonpayable"},{"type":"function","name":"canExecute","inputs":[{"name":"keyHash","type":"bytes32","internalType":"bytes32"},{"name":"target","type":"address","internalType":"address"},{"name":"data","type":"bytes","internalType":"bytes"}],"outputs":[{"name":"","type":"bool","internalType":"bool"}],"stateMutability":"view"},{"type":"function","name":"compensate","inputs":[{"name":"paymentToken","type":"address","internalType":"address"},{"name":"paymentRecipient","type":"address","internalType":"address"},{"name":"paymentAmount","type":"uint256","internalType":"uint256"},{"name":"eoa","type":"address","internalType":"address"}],"outputs":[],"stateMutability":"nonpayable"},{"type":"function","name":"computeDigest","inputs":[{"name":"calls","type":"tuple[]","internalType":"struct ERC7821.Call[]","components":[{"name":"target","type":"address","internalType":"address"},{"name":"value","type":"uint256","internalType":"uint256"},{"name":"data","type":"bytes","internalType":"bytes"}]},{"name":"nonce","type":"uint256","internalType":"uint256"}],"outputs":[{"name":"result","type":"bytes32","internalType":"bytes32"}],"stateMutability":"view"},{"type":"function","name":"eip712Domain","inputs":[],"outputs":[{"name":"fields","type":"bytes1","internalType":"bytes1"},{"name":"name","type":"string","internalType":"string"},{"name":"version","type":"string","internalType":"string"},{"name":"chainId","type":"uint256","internalType":"uint256"},{"name":"verifyingContract","type":"address","internalType":"address"},{"name":"salt","type":"bytes32","internalType":"bytes32"},{"name":"extensions","type":"uint256[]","internalType":"uint256[]"}],"stateMutability":"view"},{"type":"function","name":"execute","inputs":[{"name":"mode","type":"bytes32","internalType":"bytes32"},{"name":"executionData","type":"bytes","internalType":"bytes"}],"outputs":[],"stateMutability":"payable"},{"type":"function","name":"getKey","inputs":[{"name":"keyHash","type":"bytes32","internalType":"bytes32"}],"outputs":[{"name":"key","type":"tuple","internalType":"struct Delegation.Key","components":[{"name":"expiry","type":"uint40","internalType":"uint40"},{"name":"keyType","type":"uint8","internalType":"enum Delegation.KeyType"},{"name":"isSuperAdmin","type":"bool","internalType":"bool"},{"name":"publicKey","type":"bytes","internalType":"bytes"}]}],"stateMutability":"view"},{"type":"function","name":"getNonce","inputs":[{"name":"seqKey","type":"uint192","internalType":"uint192"}],"outputs":[{"name":"","type":"uint256","internalType":"uint256"}],"stateMutability":"view"},{"type":"function","name":"hash","inputs":[{"name":"key","type":"tuple","internalType":"struct Delegation.Key","components":[{"name":"expiry","type":"uint40","internalType":"uint40"},{"name":"keyType","type":"uint8","internalType":"enum Delegation.KeyType"},{"name":"isSuperAdmin","type":"bool","internalType":"bool"},{"name":"publicKey","type":"bytes","internalType":"bytes"}]}],"outputs":[{"name":"","type":"bytes32","internalType":"bytes32"}],"stateMutability":"pure"},{"type":"function","name":"invalidateNonce","inputs":[{"name":"nonce","type":"uint256","internalType":"uint256"}],"outputs":[],"stateMutability":"nonpayable"},{"type":"function","name":"isValidSignature","inputs":[{"name":"digest","type":"bytes32","internalType":"bytes32"},{"name":"signature","type":"bytes","internalType":"bytes"}],"outputs":[{"name":"","type":"bytes4","internalType":"bytes4"}],"stateMutability":"view"},{"type":"function","name":"keyAt","inputs":[{"name":"i","type":"uint256","internalType":"uint256"}],"outputs":[{"name":"","type":"tuple","internalType":"struct Delegation.Key","components":[{"name":"expiry","type":"uint40","internalType":"uint40"},{"name":"keyType","type":"uint8","internalType":"enum Delegation.KeyType"},{"name":"isSuperAdmin","type":"bool","internalType":"bool"},{"name":"publicKey","type":"bytes","internalType":"bytes"}]}],"stateMutability":"view"},{"type":"function","name":"keyCount","inputs":[],"outputs":[{"name":"","type":"uint256","internalType":"uint256"}],"stateMutability":"view"},{"type":"function","name":"label","inputs":[],"outputs":[{"name":"","type":"string","internalType":"string"}],"stateMutability":"view"},{"type":"function","name":"removeSpendLimit","inputs":[{"name":"keyHash","type":"bytes32","internalType":"bytes32"},{"name":"token","type":"address","internalType":"address"},{"name":"period","type":"uint8","internalType":"enum GuardedExecutor.SpendPeriod"}],"outputs":[],"stateMutability":"nonpayable"},{"type":"function","name":"revoke","inputs":[{"name":"keyHash","type":"bytes32","internalType":"bytes32"}],"outputs":[],"stateMutability":"nonpayable"},{"type":"function","name":"setCanExecute","inputs":[{"name":"keyHash","type":"bytes32","internalType":"bytes32"},{"name":"target","type":"address","internalType":"address"},{"name":"fnSel","type":"bytes4","internalType":"bytes4"},{"name":"can","type":"bool","internalType":"bool"}],"outputs":[],"stateMutability":"nonpayable"},{"type":"function","name":"setImplementationApproval","inputs":[{"name":"implementation","type":"address","internalType":"address"},{"name":"isApproved","type":"bool","internalType":"bool"}],"outputs":[],"stateMutability":"nonpayable"},{"type":"function","name":"setImplementationCallerApproval","inputs":[{"name":"implementation","type":"address","internalType":"address"},{"name":"caller","type":"address","internalType":"address"},{"name":"isApproved","type":"bool","internalType":"bool"}],"outputs":[],"stateMutability":"nonpayable"},{"type":"function","name":"setLabel","inputs":[{"name":"newLabel","type":"string","internalType":"string"}],"outputs":[],"stateMutability":"nonpayable"},{"type":"function","name":"setSignatureCheckerApproval","inputs":[{"name":"keyHash","type":"bytes32","internalType":"bytes32"},{"name":"checker","type":"address","internalType":"address"},{"name":"isApproved","type":"bool","internalType":"bool"}],"outputs":[],"stateMutability":"nonpayable"},{"type":"function","name":"setSpendLimit","inputs":[{"name":"keyHash","type":"bytes32","internalType":"bytes32"},{"name":"token","type":"address","internalType":"address"},{"name":"period","type":"uint8","internalType":"enum GuardedExecutor.SpendPeriod"},{"name":"limit","type":"uint256","internalType":"uint256"}],"outputs":[],"stateMutability":"nonpayable"},{"type":"function","name":"spendInfos","inputs":[{"name":"keyHash","type":"bytes32","internalType":"bytes32"}],"outputs":[{"name":"results","type":"tuple[]","internalType":"struct GuardedExecutor.SpendInfo[]","components":[{"name":"token","type":"address","internalType":"address"},{"name":"period","type":"uint8","internalType":"enum GuardedExecutor.SpendPeriod"},{"name":"limit","type":"uint256","internalType":"uint256"},{"name":"spent","type":"uint256","internalType":"uint256"},{"name":"lastUpdated","type":"uint256","internalType":"uint256"}]}],"stateMutability":"view"},{"type":"function","name":"startOfSpendPeriod","inputs":[{"name":"unixTimestamp","type":"uint256","internalType":"uint256"},{"name":"period","type":"uint8","internalType":"enum GuardedExecutor.SpendPeriod"}],"outputs":[{"name":"","type":"uint256","internalType":"uint256"}],"stateMutability":"pure"},{"type":"function","name":"supportsExecutionMode","inputs":[{"name":"mode","type":"bytes32","internalType":"bytes32"}],"outputs":[{"name":"","type":"bool","internalType":"bool"}],"stateMutability":"view"},{"type":"function","name":"unwrapAndValidateSignature","inputs":[{"name":"digest","type":"bytes32","internalType":"bytes32"},{"name":"signature","type":"bytes","internalType":"bytes"}],"outputs":[{"name":"isValid","type":"bool","internalType":"bool"},{"name":"keyHash","type":"bytes32","internalType":"bytes32"}],"stateMutability":"view"},{"type":"function","name":"upgradeProxyDelegation","inputs":[{"name":"newImplementation","type":"address","internalType":"address"}],"outputs":[],"stateMutability":"nonpayable"},{"type":"event","name":"Authorized","inputs":[{"name":"keyHash","type":"bytes32","indexed":true,"internalType":"bytes32"},{"name":"key","type":"tuple","indexed":false,"internalType":"struct Delegation.Key","components":[{"name":"expiry","type":"uint40","internalType":"uint40"},{"name":"keyType","type":"uint8","internalType":"enum Delegation.KeyType"},{"name":"isSuperAdmin","type":"bool","internalType":"bool"},{"name":"publicKey","type":"bytes","internalType":"bytes"}]}],"anonymous":false},{"type":"event","name":"CanExecuteSet","inputs":[{"name":"keyHash","type":"bytes32","indexed":false,"internalType":"bytes32"},{"name":"target","type":"address","indexed":false,"internalType":"address"},{"name":"fnSel","type":"bytes4","indexed":false,"internalType":"bytes4"},{"name":"can","type":"bool","indexed":false,"internalType":"bool"}],"anonymous":false},{"type":"event","name":"ImplementationApprovalSet","inputs":[{"name":"implementation","type":"address","indexed":true,"internalType":"address"},{"name":"isApproved","type":"bool","indexed":false,"internalType":"bool"}],"anonymous":false},{"type":"event","name":"ImplementationCallerApprovalSet","inputs":[{"name":"implementation","type":"address","indexed":true,"internalType":"address"},{"name":"caller","type":"address","indexed":true,"internalType":"address"},{"name":"isApproved","type":"bool","indexed":false,"internalType":"bool"}],"anonymous":false},{"type":"event","name":"LabelSet","inputs":[{"name":"newLabel","type":"string","indexed":false,"internalType":"string"}],"anonymous":false},{"type":"event","name":"NonceInvalidated","inputs":[{"name":"nonce","type":"uint256","indexed":false,"internalType":"uint256"}],"anonymous":false},{"type":"event","name":"Revoked","inputs":[{"name":"keyHash","type":"bytes32","indexed":true,"internalType":"bytes32"}],"anonymous":false},{"type":"event","name":"SignatureCheckerApprovalSet","inputs":[{"name":"keyHash","type":"bytes32","indexed":true,"internalType":"bytes32"},{"name":"checker","type":"address","indexed":true,"internalType":"address"},{"name":"isApproved","type":"bool","indexed":false,"internalType":"bool"}],"anonymous":false},{"type":"event","name":"SpendLimitRemoved","inputs":[{"name":"keyHash","type":"bytes32","indexed":false,"internalType":"bytes32"},{"name":"token","type":"address","indexed":false,"internalType":"address"},{"name":"period","type":"uint8","indexed":false,"internalType":"enum GuardedExecutor.SpendPeriod"}],"anonymous":false},{"type":"event","name":"SpendLimitSet","inputs":[{"name":"keyHash","type":"bytes32","indexed":false,"internalType":"bytes32"},{"name":"token","type":"address","indexed":false,"internalType":"address"},{"name":"period","type":"uint8","indexed":false,"internalType":"enum GuardedExecutor.SpendPeriod"},{"name":"limit","type":"uint256","indexed":false,"internalType":"uint256"}],"anonymous":false},{"type":"error","name":"BatchOfBatchesDecodingError","inputs":[]},{"type":"error","name":"CannotSelfExecute","inputs":[]},{"type":"error","name":"ExceededSpendLimit","inputs":[]},{"type":"error","name":"ExceedsCapacity","inputs":[]},{"type":"error","name":"FnSelectorNotRecognized","inputs":[]},{"type":"error","name":"IndexOutOfBounds","inputs":[]},{"type":"error","name":"InvalidNonce","inputs":[]},{"type":"error","name":"KeyDoesNotExist","inputs":[]},{"type":"error","name":"KeyHashIsZero","inputs":[]},{"type":"error","name":"NewSequenceMustBeLarger","inputs":[]},{"type":"error","name":"OpDataTooShort","inputs":[]},{"type":"error","name":"SuperAdminCanExecuteEverything","inputs":[]},{"type":"error","name":"Unauthorized","inputs":[]},{"type":"error","name":"UnsupportedExecutionMode","inputs":[]}],"bytecode":{"object":"0x610120604052348015610010575f5ffd5b50306080524660a05260608061005f604080518082018252600a8152692232b632b3b0ba34b7b760b11b60208083019190915282518084019093526005835264302e302e3160d81b9083015291565b815160209283012081519183019190912060c082905260e0819052604080517f8b73c3c69bb8fe3d512ecc4cf759cc79239f7b179b0ffacaa9a75d522b39400f8152938401929092529082015246606082015230608082015260a0902061010052506100c89050565b60805160a05160c05160e051610100516145206101055f395f61204d01525f61210701525f6120e101525f61209101525f61206e01526145205ff3fe608060405260043610610233575f3560e01c80636fd914541161012d578063cb4774c4116100aa578063e9ae5c531161006e578063e9ae5c5314610796578063faba56d8146107a9578063fac750e0146107c8578063fcd4e707146107dc578063ff619c6b146108045761023a565b8063cb4774c4146106dc578063cebfe336146106fd578063d03c79141461071c578063dcc09ebf1461074b578063e537b27b146107775761023a565b8063a840fe49116100f1578063a840fe4914610641578063ad07708314610660578063b70e36f01461067f578063b75c7dc61461069e578063bf530969146106bd5761023a565b80636fd91454146105a15780637656d304146105c05780637b8e4ecc146105df57806384b0196e146105f357806394430fa51461061a5761023a565b80632081a278116101bb578063515c9d6d1161017f578063515c9d6d146104e457806356298c9814610504578063598daac4146105235780635f7c23ab1461054257806360d2f33d1461056e5761023a565b80632081a278146104245780632f3f30c714610443578063350585011461045d5780633e1b0812146104775780634223b5c2146104c55761023a565b80631626ba7e116102025780631626ba7e1461033a578063164b8599146103725780631a37ef23146103915780631a912f3e146103b057806320606b70146103f15761023a565b80630cef73b41461027357806311a86fd6146102ae57806312aaac70146102ed578063136a12f7146103195761023a565b3661023a57005b5f3560e01c63bc197c81811463f23a6e6182141763150b7a028214171561026557806020526020603cf35b50633c10b94e5f526004601cfd5b34801561027e575f5ffd5b5061029261028d366004613c50565b610825565b6040805192151583526020830191909152015b60405180910390f35b3480156102b9575f5ffd5b506102d573323232323232323232323232323232323232323281565b6040516001600160a01b0390911681526020016102a5565b3480156102f8575f5ffd5b5061030c610307366004613c97565b61083f565b6040516102a59190613cf0565b348015610324575f5ffd5b50610338610333366004613d66565b61092f565b005b348015610345575f5ffd5b50610359610354366004613c50565b610a5b565b6040516001600160e01b031990911681526020016102a5565b34801561037d575f5ffd5b5061033861038c366004613dc0565b610ac7565b34801561039c575f5ffd5b506103386103ab366004613e04565b610b8e565b3480156103bb575f5ffd5b506103e37f84fa2cf05cd88e992eae77e851af68a4ee278dcff6ef504e487a55b3baadfbe581565b6040519081526020016102a5565b3480156103fc575f5ffd5b506103e37f8b73c3c69bb8fe3d512ecc4cf759cc79239f7b179b0ffacaa9a75d522b39400f81565b34801561042f575f5ffd5b5061033861043e366004613e2d565b610be5565b34801561044e575f5ffd5b50610359630707070760e51b81565b348015610468575f5ffd5b50610359631919191960e11b81565b348015610482575f5ffd5b506103e3610491366004613e5f565b6001600160c01b0381165f908152686d3d4e7fb92a5238156020526040908190205491901b67ffffffffffffffff19161790565b3480156104d0575f5ffd5b5061030c6104df366004613c97565b610cf8565b3480156104ef575f5ffd5b506103e35f5160206144cb5f395f51905f5281565b34801561050f575f5ffd5b5061033861051e366004613e85565b610d36565b34801561052e575f5ffd5b5061033861053d366004613ed5565b610da2565b34801561054d575f5ffd5b5061056161055c366004613e04565b610ec0565b6040516102a59190613f18565b348015610579575f5ffd5b506103e37fe5dcff20fdd02f442e4306a50171756423d892722700f22b6731c9a4c7133acb81565b3480156105ac575f5ffd5b506103e36105bb366004613f63565b610ed3565b3480156105cb575f5ffd5b506103386105da366004613fd6565b61101d565b3480156105ea575f5ffd5b506105616110cf565b3480156105fe575f5ffd5b506106076110e8565b6040516102a59796959493929190613ffa565b348015610625575f5ffd5b506102d573307af7d28afee82092aa95d35644898311ca536081565b34801561064c575f5ffd5b506103e361065b366004614155565b61110e565b34801561066b575f5ffd5b5061056161067a366004613c97565b611147565b34801561068a575f5ffd5b50610338610699366004613c97565b611155565b3480156106a9575f5ffd5b506103386106b8366004613c97565b6111f9565b3480156106c8575f5ffd5b506103386106d7366004614202565b61124e565b3480156106e7575f5ffd5b506106f06112e6565b6040516102a59190614240565b348015610708575f5ffd5b506103e3610717366004614155565b6112fa565b348015610727575f5ffd5b5061073b610736366004613c97565b611362565b60405190151581526020016102a5565b348015610756575f5ffd5b5061076a610765366004613c97565b611385565b6040516102a59190614266565b348015610782575f5ffd5b506103386107913660046142e0565b6114f7565b6103386107a4366004613c50565b6115a8565b3480156107b4575f5ffd5b506103e36107c3366004614313565b6115e1565b3480156107d3575f5ffd5b506103e36116f5565b3480156107e7575f5ffd5b506107f161c1d081565b60405161ffff90911681526020016102a5565b34801561080f575f5ffd5b5061073b61081e366004614334565b611708565b565b5f5f6108328585856119a4565b915091505b935093915050565b604080516080810182525f80825260208201819052918101919091526060808201525f828152686d3d4e7fb92a5238176020526040812061087f90611bac565b905080515f036108a25760405163395ed8c160e21b815260040160405180910390fd5b8051600619015f6108b68383016020015190565b60d881901c855260c881901c915060d01c60ff1660028111156108db576108db613cae565b846020019060028111156108f1576108f1613cae565b9081600281111561090457610904613cae565b90525060ff81161515604085015261092183838151811082025290565b606085015250919392505050565b33301461094e576040516282b42960e81b815260040160405180910390fd5b838061096d57604051638707510560e01b815260040160405180910390fd5b61097685611c12565b1561099457604051630442081560e01b815260040160405180910390fd5b61099e8484611c26565b156109bc576040516303a6f8c760e21b815260040160405180910390fd5b5f83815260188590526004869052603881208152683c149ebf7b8e6c5e226020818152604092839020805460ff191686151590811790915583518981526001600160a01b038916928101929092526001600160e01b03198716938201939093526060810192909252907f7eb91b8ac56c0864a4e4f5598082d140d04bed1a4dd62a41d605be2430c494e1906080015b60405180910390a1505050505050565b5f5f5f610a698686866119a4565b90925090508115158115151615610aa357610a838161083f565b6040015180610aa05750610aa033610a9a83611c4e565b90611c7d565b91505b81610ab25763ffffffff610ab8565b631626ba7e5b60e01b925050505b9392505050565b333014610ae6576040516282b42960e81b815260040160405180910390fd5b686d3d4e7fb92a523813610b03686d3d4e7fb92a52381985611c7d565b610b1f576040516282b42960e81b815260040160405180910390fd5b610b388383610200610b3088611d27565b929190611d60565b50826001600160a01b0316846001600160a01b03167f22e306b6bdb65906c2b1557fba289ced7fe45decec4c8df8dbc9c21a65ac305284604051610b80911515815260200190565b60405180910390a350505050565b333014610bad576040516282b42960e81b815260040160405180910390fd5b7f360894a13ba1a3210667c828492db98dca3e2076cc3735a920a3ca505d382bbc80545f908152606083901b600c5251905550565b50565b333014610c04576040516282b42960e81b815260040160405180910390fd5b8280610c2357604051638707510560e01b815260040160405180910390fd5b5f848152683c149ebf7b8e6c5e2360205260409020610c428185611d89565b506001600160a01b0384165f9081526001820160205260409020610c8a846005811115610c7157610c71613cae565b8254600160ff9092169190911b80198216845516151590565b50806001015f856005811115610ca257610ca2613cae565b60ff168152602081019190915260409081015f9081208181556001810182905560020155517fa17fd662986af6bbcda33ce6b68c967b609aebe07da86cd25ee7bfbd01a65a2790610a4b9088908890889061438b565b604080516080810182525f8082526020820181905291810191909152606080820152610d30610307686d3d4e7fb92a52381684611ebe565b92915050565b3373307af7d28afee82092aa95d35644898311ca536014610d69576040516282b42960e81b815260040160405180910390fd5b6001600160a01b0381163014610d91576040516282b42960e81b815260040160405180910390fd5b610d9c848484611f07565b50505050565b333014610dc1576040516282b42960e81b815260040160405180910390fd5b8380610de057604051638707510560e01b815260040160405180910390fd5b5f858152683c149ebf7b8e6c5e2360205260409081902090610e059082908790611f2a565b506001600160a01b0385165f9081526001820160205260409020610e4b856005811115610e3457610e34613cae565b8254600160ff9092169190911b8082178455161590565b5083816001015f876005811115610e6457610e64613cae565b60ff1681526020019081526020015f205f01819055507f68c781b0acb659616fc73da877ee77ae95c51ce973b6c7a762c8692058351b4a87878787604051610eaf94939291906143ae565b60405180910390a150505050505050565b6060610d30610ece83611d27565b611f66565b5f80610eef8460408051828152600190920160051b8201905290565b90505f5b84811015610f9a57600581901b86013586018035801530021790602080820135916040810135019081019035610f8a85610f7b7f84fa2cf05cd88e992eae77e851af68a4ee278dcff6ef504e487a55b3baadfbe56001600160a01b03881687610f5c888861203a565b6040805194855260208501939093529183015260608201526080902090565b600190910160051b8801528690565b5050505050806001019050610ef3565b5061c1d060f084901c145f610ff47fe5dcff20fdd02f442e4306a50171756423d892722700f22b6731c9a4c7133acb83855160051b6020870120886040805194855260208501939093529183015260608201526080902090565b905081611009576110048161204b565b611012565b61101281612161565b979650505050505050565b33301461103c576040516282b42960e81b815260040160405180910390fd5b5f838152686d3d4e7fb92a523817602052604090205460ff166110725760405163395ed8c160e21b815260040160405180910390fd5b6110838282610200610b3087611c4e565b50816001600160a01b0316837f30653b7562c17b712ebc81c7a2373ea1c255cf2a055380385273b5bf7192cc99836040516110c2911515815260200190565b60405180910390a3505050565b60606110e3686d3d4e7fb92a523819611f66565b905090565b600f60f81b6060805f8080836110fc6121d5565b97989097965046955030945091925090565b5f610d308260200151600281111561112857611128613cae565b60ff168360600151805190602001205f1c5f9182526020526040902090565b6060610d30610ece83611c4e565b333014611174576040516282b42960e81b815260040160405180910390fd5b604081811c5f908152686d3d4e7fb92a5238156020522080546001600160401b038316116111b5576040516312ee5c9360e01b815260040160405180910390fd5b6001600160401b03821681556040518281527f4d9dbebf1d909894d9c26fe228c27cec643b2cb490124e5b658f4edd203c20c1906020015b60405180910390a15050565b333014611218576040516282b42960e81b815260040160405180910390fd5b61122181612215565b60405181907fe5af7daed5ab2a2dc5f98d53619f05089c0c14d11a6621f6b906a2366c9a7ab3905f90a250565b33301461126d576040516282b42960e81b815260040160405180910390fd5b6112b582828080601f0160208091040260200160405190810160405280939291908181526020018383808284375f920191909152506112af9250611b9f915050565b90612284565b7faec6ef4baadc9acbdf52442522dfffda03abe29adba8d4af611bcef4cbe0c9ad82826040516111ed9291906143e0565b60606110e3686d3d4e7fb92a523813611bac565b5f33301461131a576040516282b42960e81b815260040160405180910390fd5b611323826122dc565b9050807f3d3a48be5a98628ecf98a6201185102da78bbab8f63a4b2d6b9eef354f5131f5836040516113559190613cf0565b60405180910390a2919050565b5f610d306001600160f81b03198084161461137c84612351565b15159015151790565b5f818152683c149ebf7b8e6c5e2360209081526040918290208251918201909252606080825291905f6113b783612363565b90505f5b818110156114ed575f6113ce85836123b4565b6001600160a01b0381165f90815260018701602052604081209192506113f38261240d565b90505f5b81518110156114de575f8282815181106114135761141361440e565b602002602001015190505f846001015f8360ff1681526020019081526020015f2090506114656040805160a081019091525f808252602082019081526020015f81526020015f81526020015f81525090565b8260ff16600581111561147a5761147a613cae565b8160200190600581111561149057611490613cae565b908160058111156114a3576114a3613cae565b9052506001600160a01b03871681528154604082015260028201546080820152806114ce8b82612466565b50505050508060010190506113f7565b505050508060010190506113bb565b5050519392505050565b333014611516576040516282b42960e81b815260040160405180910390fd5b686d3d4e7fb92a523813611537686d3d4e7fb92a5238198484610200611d60565b508161155e576001600160a01b0383165f9081526007820160205260409020805460010190555b826001600160a01b03167f31471c9e79dc8535d9341d73e61eaf5e72e4134b3e5b16943305041201581d888360405161159b911515815260200190565b60405180910390a2505050565b6001600160f81b031980841690036115c9576115c48282612511565b6115d4565b6115d48383836125b7565b6115dc612633565b505050565b5f808260058111156115f5576115f5613cae565b0361160857603c808404025b9050610d30565b600182600581111561161c5761161c613cae565b0361162d57610e1080840402611601565b600282600581111561164157611641613cae565b03611653576201518080840402611601565b600382600581111561166757611667613cae565b0361168d576007600362015180808604918201929092069003620545ff85110202611601565b5f5f61169885612681565b50909250905060048460058111156116b2576116b2613cae565b036116cc576116c38282600161272b565b92505050610d30565b60058460058111156116e0576116e0613cae565b036116f1576116c38260018061272b565b5f5ffd5b5f6110e3686d3d4e7fb92a523816612782565b5f846117165750600161199c565b61171f85611c12565b1561172c5750600161199c565b683c149ebf7b8e6c5e22631919191960e11b6004841061174a575083355b836117595750630707070760e51b5b6117638682611c26565b15611772575f9250505061199c565b5f818152601887905260048890526038812081526020839052604090205460ff16156117a35760019250505061199c565b631919191960e11b5f908152601887905260048890526038812081526020839052604090205460ff16156117dc5760019250505061199c565b5f81815273323232323232323232323232323232323232323260185260048890526038812081526020839052604090205460ff16156118205760019250505061199c565b631919191960e11b5f90815273323232323232323232323232323232323232323260185260048890526038812081526020839052604090205460ff161561186c5760019250505061199c565b5f81815260188790525f5160206144cb5f395f51905f526004526038812081526020839052604090205460ff16156118a95760019250505061199c565b631919191960e11b5f90815260188790525f5160206144cb5f395f51905f526004526038812081526020839052604090205460ff16156118ee5760019250505061199c565b5f8181527332323232323232323232323232323232323232326018525f5160206144cb5f395f51905f526004526038812081526020839052604090205460ff161561193e5760019250505061199c565b631919191960e11b5f9081527332323232323232323232323232323232323232326018525f5160206144cb5f395f51905f526004526038812081526020839052604090205460ff16156119965760019250505061199c565b5f925050505b949350505050565b5f80604183146040841417156119d457306119c08686866127ce565b6001600160a01b03161491505f9050610837565b60218310156119e757505f905080610837565b506020198281018381118185180281189385019182013591601f19013560ff1615611a1857611a1586612856565b95505b505f611a238261083f565b805190915064ffffffffff164281109015151615611a44575f925050610837565b5f81602001516002811115611a5b57611a5b613cae565b03611ab6575f80603f86118735810290602089013502915091505f5f611a9a856060015180516020820151604090920151603f90911191820292910290565b91509150611aab8a85858585612874565b965050505050611b96565b600181602001516002811115611ace57611ace613cae565b03611b5357606081810151805160208083015160409384015184518084018d9052855180820385018152601f8c018590049094028101870186529485018a8152603f9490941091820295910293611b4a935f92611b43928d918d918291018382808284375f9201919091525061290692505050565b85856129ee565b94505050611b96565b600281602001516002811115611b6b57611b6b613cae565b03611b9657611b938160600151806020019051810190611b8b9190614422565b878787612b0d565b92505b50935093915050565b686d3d4e7fb92a52381390565b60405181546020820190600881901c5f8260ff841714611bda57505080825260ff8116601f80821115611bfc575b855f5260205f205b8160051c81015482860152602082019150828210611be257505b508084525f920191825250602001604052919050565b5f611c1c8261083f565b6040015192915050565b6001600160a01b039190911630146001600160e01b03199190911663e9ae5c5360e01b141690565b5f818152686d3d4e7fb92a523818602052604081208054601f5263d4203f8b6004528152603f81208190610ac0565b63978aab926004525f828152602481206001600160a01b03929092169168fbb67fda52d4bfb8be198301611cb85763f5a267f15f526004601cfd5b82611cca5768fbb67fda52d4bfb8bf92505b80546001600160601b038116611d0e5760019250838160601c0315611d1f57600182015460601c8414611d1f57600282015460601c8414611d1f575b5f9250611d1f565b81602052835f5260405f2054151592505b505092915050565b6001600160a01b0381165f908152686d3d4e7fb92a52381a602052604081208054601f5263d4203f8b6004528152603f81208190610ac0565b5f82611d7557611d708585611d89565b611d80565b611d80858584611f2a565b95945050505050565b63978aab926004525f828152602481206001600160a01b03929092169168fbb67fda52d4bfb8be198301611dc45763f5a267f15f526004601cfd5b82611dd65768fbb67fda52d4bfb8bf92505b80546001600160601b03811680611e505760019350848260601c03611e0e5760018301805484556002840180549091555f9055611eb5565b84600184015460601c03611e2f5760028301805460018501555f9055611eb5565b84600284015460601c03611e48575f6002840155611eb5565b5f9350611eb5565b82602052845f5260405f20805480611e69575050611eb5565b60018360011c039250826001820314611e99578285015460601c8060601b60018303870155805f52508060405f20555b5060018260011b17845460601c60601b1784555f815550600193505b50505092915050565b6318fb58646004525f8281526024902081015468fbb67fda52d4bfb8bf81141502611ee883612782565b8210610d3057604051634e23d03560e01b815260040160405180910390fd5b6001600160a01b038316611f1f576115dc8282612be0565b6115dc838383612bf9565b5f611f358484612c43565b90508015610ac05781611f4785612363565b1115610ac05760405163155176b960e11b815260040160405180910390fd5b63978aab926004525f818152602481206060915068fbb67fda52d4bfb8bf81548060a01b60a01c6040519450846020018260601c9250838314158302815281611ff4578215611fef57600191508185015460601c92508215611fef578284141590920260208301525060028381015460601c918215611fef576003915083831415830260408201525b612024565b600191821c915b82811015612022578581015460601c858114158102600583901b8401529350600101611ffb565b505b8186528160051b81016040525050505050919050565b5f8183604051375060405120919050565b7f00000000000000000000000000000000000000000000000000000000000000007f000000000000000000000000000000000000000000000000000000000000000030147f000000000000000000000000000000000000000000000000000000000000000046141661213e5750604080517f8b73c3c69bb8fe3d512ecc4cf759cc79239f7b179b0ffacaa9a75d522b39400f81527f000000000000000000000000000000000000000000000000000000000000000060208201527f00000000000000000000000000000000000000000000000000000000000000009181019190915246606082015230608082015260a090205b6719010000000000005f5280601a5281603a52604260182090505f603a52919050565b5f5f5f61216c6121d5565b915091506040517f91ab3d17e3a50a9d89e63fd30b92be7f5336b03b287bb946787a83a9d62a27665f5282516020840120602052815160208301206040523060605260805f206020526119015f52846040526042601e20935080604052505f6060525050919050565b604080518082018252600a8152692232b632b3b0ba34b7b760b11b60208083019190915282518084019093526005835264302e302e3160d81b9083015291565b5f818152686d3d4e7fb92a52381760209081526040808320839055686d3d4e7fb92a523818909152902080546001019055686d3d4e7fb92a523813612263686d3d4e7fb92a52381683612d9e565b6122805760405163395ed8c160e21b815260040160405180910390fd5b5050565b80518060081b60ff175f60fe83116122ad575050601f8281015160081b821790808311156122d4575b60208401855f5260205f205b828201518360051c8201556020830192508483106122b95750505b509092555050565b5f6122e68261110e565b90505f686d3d4e7fb92a52381360608401518451602080870151604080890151905195965061233d9561231b9594930161443d565b60408051601f198184030181529181525f858152600485016020522090612284565b61234a6003820183612e9c565b5050919050565b5f61235b82612fae565b151592915050565b63978aab926004525f8181526024812080548060a01b60a01c8060011c9350808260601c15176123ac576001935083830154156123ac576002935083830154156123ac57600393505b505050919050565b63978aab926004525f828152602481208281015460601c915068fbb67fda52d4bfb8bf821415820291506123e784612363565b831061240657604051634e23d03560e01b815260040160405180910390fd5b5092915050565b604051815460208201905f905b80156124505761ffff8116612435576010918201911c61241a565b8183526020600582901b16909201916001918201911c61241a565b5050601f198282030160051c8252604052919050565b604080516060815290819052829050825160018151018060051b661d174b32e2c5536020840351818106158282040290508083106125005782811781016060861482602001870160405118176124cc57828102601f198701528501602001604052612500565b602060405101816020018101604052808a52601f19855b88810151838201528101806124e357509184029181019190915294505b505082019390935291909152919050565b686d3d4e7fb92a523813823560601c601483811881851002188085019080851190850302612548686d3d4e7fb92a52381984611c7d565b612564576040516282b42960e81b815260040160405180910390fd5b3330146125945761257833610a9a85611d27565b612594576040516282b42960e81b815260040160405180910390fd5b604051818382375f388383875af46125ae573d5f823e3d81fd5b50505050505050565b5f6125c184612fae565b9050806003036125d657610d9c848484612ff7565b365f365f846125ec57637f1812755f526004601cfd5b5085358087016020810194503592505f9060401160028614111561261a575050602080860135860190810190355b6126298888888787878761308f565b5050505050505050565b7f360894a13ba1a3210667c828492db98dca3e2076cc3735a920a3ca505d382bbc5460601b61082357307f94e11c6e41e7fb92cb8bb65e13fdfbd4eba8b831292a1a220f7915c78c7c078f5d565b5f808061271e612694620151808661448c565b5f5f5f620afa6c8401935062023ab1840661016d62023ab082146105b48304618eac84048401030304606481048160021c8261016d0201038203915060996002836005020104600161030161f4ff830201600b1c84030193506b030405060708090a0b0c010260a01b811a9450506003841061019062023ab1880402820101945050509193909250565b9196909550909350915050565b5f620afa6c1961019060038510860381810462023ab10260649290910691820461016d830260029390931c9290920161f4ff600c60098901060261030101600b1c8601019190910301016201518002949350505050565b6318fb58646004525f818152602481208019548060011c92508061234a5781545f93501561234a5760019250828201541561234a5760029250828201541561234a575060039392505050565b5f60405182604081146127e957604181146128105750612841565b60208581013560ff81901c601b0190915285356040526001600160ff1b0316606052612821565b60408501355f1a6020526040856040375b50845f526020600160805f60015afa5191505f606052806040523d61284e575b638baa579f5f526004601cfd5b509392505050565b5f815f526020600160205f60025afa5190503d61286f57fe5b919050565b5f6040518681528560208201528460408201528360608201528260808201525f5f5260205f60a0836101005afa503d6128d15760203d60a0836dd01ea45f9efd5c54f037fa57ea1a5afa503d6128d15763d0d5039b3d526004601cfd5b505f516001147f7fffffff800000007fffffffffffffffde737d56d38bcf4279dce5617e3192a8851110905095945050505050565b61293b6040518060c0016040528060608152602001606081526020015f81526020015f81526020015f81526020015f81525090565b815160c081106129e85760208301818101818251018281108260c08301111715612967575050506129e8565b808151019250806020820151018181108382111782851084861117171561299157505050506129e8565b82815160208301011183855160208701011117156129b257505050506129e8565b8386528060208701525060408101516040860152606081015160608601526080810151608086015260a081015160a08601525050505b50919050565b5f5f5f6129fd88600180613210565b905060208601518051602082019150604088015160608901518451600d81016c1131b430b63632b733b2911d1160991b60981c8752848482011060228286890101515f1a14168160138901208286890120141685846014011085851760801c1074113a3cb832911d113bb2b130baba34371733b2ba1160591b60581c8589015160581c14161698505080865250505087515189151560021b600117808160218c5101511614602083118816169650508515612ae157602089510181810180516020600160208601856020868a8c60025afa60011b5afa51915295503d9050612ae157fe5b5050508215612b0257612aff8287608001518860a001518888612874565b92505b505095945050505050565b5f6001600160a01b0385161561199c57604051853b612b9d578260408114612b3d5760418114612b645750612bd7565b60208581013560ff81901c601b0190915285356040526001600160ff1b0316606052612b75565b60408501355f1a6020526040856040375b50845f526020600160805f60015afa5180871860601b3d119250505f60605280604052612bd7565b631626ba7e60e01b80825285600483015260248201604081528460448401528486606485013760208160648701858b5afa90519091141691505b50949350505050565b5f385f3884865af16122805763b12d13eb5f526004601cfd5b816014528060345263a9059cbb60601b5f5260205f604460105f875af18060015f511416612c3957803d853b151710612c39576390b8ec185f526004601cfd5b505f603452505050565b63978aab926004525f828152602481206001600160a01b03929092169168fbb67fda52d4bfb8be198301612c7e5763f5a267f15f526004601cfd5b82612c905768fbb67fda52d4bfb8bf92505b80546001600160601b0381168260205280612d52578160601c80612cbe578560601b84556001945050611eb5565b858103612ccb5750611eb5565b600184015460601c80612cec578660601b6001860155600195505050611eb5565b868103612cfa575050611eb5565b600285015460601c80612d1c578760601b600287015560019650505050611eb5565b878103612d2b57505050611eb5565b5f928352604080842060019055918352818320600290558252902060039055506007908117905b845f5260405f208054612d9457600191821c808301825591945081612d80578560601b600317845550611eb5565b8560601b8285015582600201845550611eb5565b5050505092915050565b6318fb58646004525f8281526024812068fbb67fda52d4bfb8bf8303612dcb5763f5a267f15f526004601cfd5b82612ddd5768fbb67fda52d4bfb8bf92505b80195480612e3e576001925083825403612e0a5760018201805483556002830180549091555f9055611d1f565b83600183015403612e285760028201805460018401555f9055611d1f565b83600283015403611d06575f6002830155611d1f565b81602052835f5260405f20805480612e57575050611d1f565b60018360011c039250826001820314612e8157828401548060018303860155805f52508060405f20555b5060018260011b178319555f81555060019250505092915050565b6318fb58646004525f8281526024812068fbb67fda52d4bfb8bf8303612ec95763f5a267f15f526004601cfd5b82612edb5768fbb67fda52d4bfb8bf92505b8019548160205280612f7f57815480612efb578483556001935050611d1f565b848103612f085750611d1f565b600183015480612f2357856001850155600194505050611d1f565b858103612f31575050611d1f565b600284015480612f4d5786600286015560019550505050611d1f565b868103612f5c57505050611d1f565b5f9283526040808420600190559183528183206002905582529020600390555060075b835f5260405f208054611eb557600191821c8381018690558083019182905590821b8217831955909250611d1f565b6003690100000000007821000260b09290921c69ffff00000000ffffffff16918214026901000000000078210001821460011b6901000000000000000000909214919091171790565b600360b01b929092189181358083018035916020808301928686019291600586901b9091018101831090861017604082901c171561303c57633995943b5f526004601cfd5b505f5b8381146125ae57365f8260051b850135808601602081019350803592505084828401118160401c171561307957633995943b5f526004601cfd5b506130858983836115a8565b505060010161303f565b73307af7d28afee82092aa95d35644898311ca535f1933016130de5760208110156130cd576040516355fe73fd60e11b815260040160405180910390fd5b6130d984848435613301565b6125ae565b8061310d57333014613102576040516282b42960e81b815260040160405180910390fd5b6130d984845f613301565b602081101561312f576040516355fe73fd60e11b815260040160405180910390fd5b8135604081811c5f908152686d3d4e7fb92a523815602052208054600181019091556001600160401b038216811461317a57604051633ab3447f60e11b815260040160405180910390fd5b6040518281527f4d9dbebf1d909894d9c26fe228c27cec643b2cb490124e5b658f4edd203c20c19060200160405180910390a1505f5f6131d86131be888886610ed3565b602080871081881802188088019080880390881102610825565b91509150816131f9576040516282b42960e81b815260040160405180910390fd5b613204878783613301565b50505050505050505050565b60608351801561284e576003600282010460021b60405192507f4142434445464748494a4b4c4d4e4f505152535455565758595a616263646566601f526106708515027f6768696a6b6c6d6e6f707172737475767778797a303132333435363738392d5f18603f526020830181810183886020010180515f82525b60038a0199508951603f8160121c16515f53603f81600c1c1651600153603f8160061c1651600253603f811651600353505f51845260048401935082841061328b579052602001604052613d3d60f01b60038406600204808303919091525f861515909102918290035290038252509392505050565b80613311576115dc838383613751565b5f818152683c149ebf7b8e6c5e236020526040902061338f6040805160e081018252606060c0820181815282528251602080820185528282528084019190915283518082018552828152838501528351808201855282815282840152835180820185528281526080840152835190810190935282529060a082015290565b5f61339983612363565b90505f5b818110156133eb575f6133b085836123b4565b90506001600160a01b038116156133e25760408401516133d090826137a8565b5060608401516133e0905f612466565b505b5060010161339d565b505f5f5b8681101561357457600581901b88013588018035801530021790602080820135916040810135019081019035821561342e5761342b83876144ab565b95505b6004811015613440575050505061356c565b813560e01c63a9059cbb81900361348e5761345b8a86611c7d565b61346957505050505061356c565b604089015161347890866137a8565b5061348c602484013560608b0151906137c7565b505b8063ffffffff1663095ea7b3036134ee576134a98a86611c7d565b6134b757505050505061356c565b60248301355f036134cc57505050505061356c565b88516134d890866137a8565b506134ec600484013560208b0151906137c7565b505b8063ffffffff166387517c4503613566576001600160a01b0385166e22d473030f116ddee9f6b43ac78ba31461352857505050505061356c565b60448301355f0361353d57505050505061356c565b613550600484013560808b0151906137c7565b50613564602484013560a08b0151906137c7565b505b50505050505b6001016133ef565b505f808052600185016020526040902061358e90826137dd565b6040830151516060840151516135a4919061389b565b5f6135d76135b58560400151515190565b60606040518260201c5f031790508181528160051b6020820101604052919050565b90505f5b6040850151515181101561362357604085015151600582901b0160200151613619826136078330613961565b85919060059190911b82016020015290565b50506001016135db565b5061362f888888613751565b5f5b604085015151518110156136c857604085015151600582901b01602001515f61365a8230613961565b6001600160a01b0383165f90815260018a016020908152604090912060608a015151600587901b01909101519192506136be916136b9906136ae6136a4898960051b016020015190565b8680821191030290565b808218908210021890565b6137dd565b5050600101613631565b505f5b8451515181101561370457845151600582901b01602001516136fc9060208781015151600585901b0101515f61398b565b6001016136cb565b505f5b6080850151515181101561374657608085015151600582901b016020015161373e9060a087015151600584901b01602001516139cb565b600101613707565b505050505050505050565b5f8261375d5750505050565b600581901b8401358401803580153002179060208082013591604081013501908101903561378e848484848a613a26565b5050505083839050816001019150810361375d5750505050565b604080516060815290819052610ac083836001600160a01b0316612466565b604080516060815290819052610ac08383612466565b806137e6575050565b5f6137f083613a62565b90505f5b81811015610d9c575f6138078583613a7d565b60ff81165f81815260018801602052604081209293509061383590429060058111156107c3576107c3613cae565b9050808260020154101561385157600282018190555f60018301555b815f015486836001015f82825461386891906144ab565b925050819055111561388d5760405163483f424d60e11b815260040160405180910390fd5b5050508060010190506137f4565b60405181518351146138b957634e487b715f5260326020526024601cfd5b82516138c457505050565b5f5f6138cf85613b1c565b6138d885613b1c565b915091506138e585613b4b565b6138ee85613ba0565b848403601f196020870187518752875160051b3684830137845160051b5b8086015181860151835b8281511461392657602001613916565b86018051820180825282111561394857634e487b715f5260116020526024601cfd5b50505082018061390c5750505050826040525050505050565b5f816014526370a0823160601b5f5260208060246010865afa601f3d111660205102905092915050565b816014528060345263095ea7b360601b5f5260205f604460105f875af18060015f511416612c3957803d853b151710612c3957633e3f8f735f526004601cfd5b60405163cc53287f8152602080820152600160408201528260601b60601c60608201528160601b60601c60808201525f3860a0601c84015f6e22d473030f116ddee9f6b43ac78ba35af16115dc576396b3de235f526004601cfd5b613a3281868585611708565b613a4e576040516282b42960e81b815260040160405180910390fd5b613a5b8585858585613be9565b5050505050565b5f81545b80156129e857600191820191811901811618613a66565b5f8254610100831015613aac575f5b808414613aa55760018219810183169092189101613a8c565b5080613ab9575b634e23d0355f526004601cfd5b7e1f0d1e100c1d070f090b19131c1706010e11080a1a141802121b15031604056001821901909116608081901c151560071b81811c60401c151560061b1781811c63ffffffff1060051b1790811c63d76453e004601f169190911a179392505050565b604051815160051b8101602001818084035b808201518252816020019150828203613b2e575060405250919050565b80515f82528060051b8201601f19602084015b602001828111613b995780518282018051828111613b7e57505050613b5e565b5b602082015283018051828111613b7f575060200152613b5e565b5050509052565b6002815110610be2576020810160408201600183510160051b83015b8151835114613bd057602083019250815183525b602082019150808203613bbc57505081900360051c9052565b604051828482375f388483888a5af1613c04573d5f823e3d81fd5b505050505050565b5f5f83601f840112613c1c575f5ffd5b5081356001600160401b03811115613c32575f5ffd5b602083019150836020828501011115613c49575f5ffd5b9250929050565b5f5f5f60408486031215613c62575f5ffd5b8335925060208401356001600160401b03811115613c7e575f5ffd5b613c8a86828701613c0c565b9497909650939450505050565b5f60208284031215613ca7575f5ffd5b5035919050565b634e487b7160e01b5f52602160045260245ffd5b5f81518084528060208401602086015e5f602082860101526020601f19601f83011685010191505092915050565b6020815264ffffffffff82511660208201525f602083015160038110613d1857613d18613cae565b80604084015250604083015115156060830152606083015160808084015261199c60a0840182613cc2565b6001600160a01b0381168114610be2575f5ffd5b8035801515811461286f575f5ffd5b5f5f5f5f60808587031215613d79575f5ffd5b843593506020850135613d8b81613d43565b925060408501356001600160e01b031981168114613da7575f5ffd5b9150613db560608601613d57565b905092959194509250565b5f5f5f60608486031215613dd2575f5ffd5b8335613ddd81613d43565b92506020840135613ded81613d43565b9150613dfb60408501613d57565b90509250925092565b5f60208284031215613e14575f5ffd5b8135610ac081613d43565b80356006811061286f575f5ffd5b5f5f5f60608486031215613e3f575f5ffd5b833592506020840135613e5181613d43565b9150613dfb60408501613e1f565b5f60208284031215613e6f575f5ffd5b81356001600160c01b0381168114610ac0575f5ffd5b5f5f5f5f60808587031215613e98575f5ffd5b8435613ea381613d43565b93506020850135613eb381613d43565b9250604085013591506060850135613eca81613d43565b939692955090935050565b5f5f5f5f60808587031215613ee8575f5ffd5b843593506020850135613efa81613d43565b9250613f0860408601613e1f565b9396929550929360600135925050565b602080825282518282018190525f918401906040840190835b81811015613f585783516001600160a01b0316835260209384019390920191600101613f31565b509095945050505050565b5f5f5f60408486031215613f75575f5ffd5b83356001600160401b03811115613f8a575f5ffd5b8401601f81018613613f9a575f5ffd5b80356001600160401b03811115613faf575f5ffd5b8660208260051b8401011115613fc3575f5ffd5b6020918201979096509401359392505050565b5f5f5f60608486031215613fe8575f5ffd5b833592506020840135613ded81613d43565b60ff60f81b8816815260e060208201525f61401860e0830189613cc2565b828103604084015261402a8189613cc2565b606084018890526001600160a01b038716608085015260a0840186905283810360c0850152845180825260208087019350909101905f5b8181101561407f578351835260209384019390920191600101614061565b50909b9a5050505050505050505050565b634e487b7160e01b5f52604160045260245ffd5b604051608081016001600160401b03811182821017156140c6576140c6614090565b60405290565b5f82601f8301126140db575f5ffd5b81356001600160401b038111156140f4576140f4614090565b604051601f8201601f19908116603f011681016001600160401b038111828210171561412257614122614090565b604052818152838201602001851015614139575f5ffd5b816020850160208301375f918101602001919091529392505050565b5f60208284031215614165575f5ffd5b81356001600160401b0381111561417a575f5ffd5b82016080818503121561418b575f5ffd5b6141936140a4565b813564ffffffffff811681146141a7575f5ffd5b81526020820135600381106141ba575f5ffd5b60208201526141cb60408301613d57565b604082015260608201356001600160401b038111156141e8575f5ffd5b6141f4868285016140cc565b606083015250949350505050565b5f5f60208385031215614213575f5ffd5b82356001600160401b03811115614228575f5ffd5b61423485828601613c0c565b90969095509350505050565b602081525f610ac06020830184613cc2565b6006811061426257614262613cae565b9052565b602080825282518282018190525f918401906040840190835b81811015613f5857835180516001600160a01b03168452602080820151906142a990860182614252565b506040810151604085015260608101516060850152608081015160808501525060a08301925060208401935060018101905061427f565b5f5f604083850312156142f1575f5ffd5b82356142fc81613d43565b915061430a60208401613d57565b90509250929050565b5f5f60408385031215614324575f5ffd5b8235915061430a60208401613e1f565b5f5f5f5f60608587031215614347575f5ffd5b84359350602085013561435981613d43565b925060408501356001600160401b03811115614373575f5ffd5b61437f87828801613c0c565b95989497509550505050565b8381526001600160a01b03831660208201526060810161199c6040830184614252565b8481526001600160a01b0384166020820152608081016143d16040830185614252565b82606083015295945050505050565b60208152816020820152818360408301375f818301604090810191909152601f909201601f19160101919050565b634e487b7160e01b5f52603260045260245ffd5b5f60208284031215614432575f5ffd5b8151610ac081613d43565b5f85518060208801845e60d886901b6001600160d81b0319169083019081526003851061446c5761446c613cae565b60f894851b600582015292151590931b6006830152506007019392505050565b5f826144a657634e487b7160e01b5f52601260045260245ffd5b500490565b80820180821115610d3057634e487b7160e01b5f52601160045260245ffdfe3232323232323232323232323232323232323232323232323232323232323232a2646970667358221220a05c8c33c8fc3758b1fd2435c59c8f937cfbac1552f45c763ec6d5ae477201e064736f6c634300081c0033","linkReferences":{}},"methodIdentifiers":{"ANY_FN_SEL()":"35058501","ANY_KEYHASH()":"515c9d6d","ANY_TARGET()":"11a86fd6","CALL_TYPEHASH()":"1a912f3e","DOMAIN_TYPEHASH()":"20606b70","EMPTY_CALLDATA_FN_SEL()":"2f3f30c7","ENTRY_POINT()":"94430fa5","EXECUTE_TYPEHASH()":"60d2f33d","MULTICHAIN_NONCE_PREFIX()":"fcd4e707","approvedImplementationCallers(address)":"5f7c23ab","approvedImplementations()":"7b8e4ecc","approvedSignatureCheckers(bytes32)":"ad077083","authorize((uint40,uint8,bool,bytes))":"cebfe336","canExecute(bytes32,address,bytes)":"ff619c6b","compensate(address,address,uint256,address)":"56298c98","computeDigest((address,uint256,bytes)[],uint256)":"6fd91454","eip712Domain()":"84b0196e","execute(bytes32,bytes)":"e9ae5c53","getKey(bytes32)":"12aaac70","getNonce(uint192)":"3e1b0812","hash((uint40,uint8,bool,bytes))":"a840fe49","invalidateNonce(uint256)":"b70e36f0","isValidSignature(bytes32,bytes)":"1626ba7e","keyAt(uint256)":"4223b5c2","keyCount()":"fac750e0","label()":"cb4774c4","removeSpendLimit(bytes32,address,uint8)":"2081a278","revoke(bytes32)":"b75c7dc6","setCanExecute(bytes32,address,bytes4,bool)":"136a12f7","setImplementationApproval(address,bool)":"e537b27b","setImplementationCallerApproval(address,address,bool)":"164b8599","setLabel(string)":"bf530969","setSignatureCheckerApproval(bytes32,address,bool)":"7656d304","setSpendLimit(bytes32,address,uint8,uint256)":"598daac4","spendInfos(bytes32)":"dcc09ebf","startOfSpendPeriod(uint256,uint8)":"faba56d8","supportsExecutionMode(bytes32)":"d03c7914","unwrapAndValidateSignature(bytes32,bytes)":"0cef73b4","upgradeProxyDelegation(address)":"1a37ef23"},"id":54}