{"abi":[{"type":"fallback","stateMutability":"payable"},{"type":"receive","stateMutability":"payable"},{"type":"function","name":"CALL_TYPEHASH","inputs":[],"outputs":[{"name":"","type":"bytes32","internalType":"bytes32"}],"stateMutability":"view"},{"type":"function","name":"DOMAIN_TYPEHASH","inputs":[],"outputs":[{"name":"","type":"bytes32","internalType":"bytes32"}],"stateMutability":"view"},{"type":"function","name":"MULTICHAIN_NONCE_PREFIX","inputs":[],"outputs":[{"name":"","type":"uint16","internalType":"uint16"}],"stateMutability":"view"},{"type":"function","name":"USER_OP_TYPEHASH","inputs":[],"outputs":[{"name":"","type":"bytes32","internalType":"bytes32"}],"stateMutability":"view"},{"type":"function","name":"cancelOwnershipHandover","inputs":[],"outputs":[],"stateMutability":"payable"},{"type":"function","name":"completeOwnershipHandover","inputs":[{"name":"pendingOwner","type":"address","internalType":"address"}],"outputs":[],"stateMutability":"payable"},{"type":"function","name":"eip712Domain","inputs":[],"outputs":[{"name":"fields","type":"bytes1","internalType":"bytes1"},{"name":"name","type":"string","internalType":"string"},{"name":"version","type":"string","internalType":"string"},{"name":"chainId","type":"uint256","internalType":"uint256"},{"name":"verifyingContract","type":"address","internalType":"address"},{"name":"salt","type":"bytes32","internalType":"bytes32"},{"name":"extensions","type":"uint256[]","internalType":"uint256[]"}],"stateMutability":"view"},{"type":"function","name":"execute","inputs":[{"name":"encodedUserOp","type":"bytes","internalType":"bytes"}],"outputs":[{"name":"err","type":"bytes4","internalType":"bytes4"}],"stateMutability":"payable"},{"type":"function","name":"execute","inputs":[{"name":"encodedUserOps","type":"bytes[]","internalType":"bytes[]"}],"outputs":[{"name":"errs","type":"bytes4[]","internalType":"bytes4[]"}],"stateMutability":"payable"},{"type":"function","name":"fill","inputs":[{"name":"orderId","type":"bytes32","internalType":"bytes32"},{"name":"originData","type":"bytes","internalType":"bytes"},{"name":"","type":"bytes","internalType":"bytes"}],"outputs":[{"name":"","type":"bytes4","internalType":"bytes4"}],"stateMutability":"payable"},{"type":"function","name":"getNonce","inputs":[{"name":"eoa","type":"address","internalType":"address"},{"name":"seqKey","type":"uint192","internalType":"uint192"}],"outputs":[{"name":"","type":"uint256","internalType":"uint256"}],"stateMutability":"view"},{"type":"function","name":"invalidateNonce","inputs":[{"name":"nonce","type":"uint256","internalType":"uint256"}],"outputs":[],"stateMutability":"nonpayable"},{"type":"function","name":"nonceStatus","inputs":[{"name":"eoa","type":"address","internalType":"address"},{"name":"nonce","type":"uint256","internalType":"uint256"}],"outputs":[{"name":"seq","type":"uint64","internalType":"uint64"},{"name":"err","type":"bytes4","internalType":"bytes4"}],"stateMutability":"view"},{"type":"function","name":"orderIdIsFilled","inputs":[{"name":"orderId","type":"bytes32","internalType":"bytes32"}],"outputs":[{"name":"","type":"bool","internalType":"bool"}],"stateMutability":"view"},{"type":"function","name":"owner","inputs":[],"outputs":[{"name":"result","type":"address","internalType":"address"}],"stateMutability":"view"},{"type":"function","name":"ownershipHandoverExpiresAt","inputs":[{"name":"pendingOwner","type":"address","internalType":"address"}],"outputs":[{"name":"result","type":"uint256","internalType":"uint256"}],"stateMutability":"view"},{"type":"function","name":"renounceOwnership","inputs":[],"outputs":[],"stateMutability":"payable"},{"type":"function","name":"requestOwnershipHandover","inputs":[],"outputs":[],"stateMutability":"payable"},{"type":"function","name":"simulateExecute","inputs":[{"name":"encodedUserOp","type":"bytes","internalType":"bytes"}],"outputs":[],"stateMutability":"payable"},{"type":"function","name":"simulateFailedVerifyAndCall","inputs":[{"name":"encodedUserOp","type":"bytes","internalType":"bytes"}],"outputs":[],"stateMutability":"payable"},{"type":"function","name":"transferOwnership","inputs":[{"name":"newOwner","type":"address","internalType":"address"}],"outputs":[],"stateMutability":"payable"},{"type":"function","name":"withdrawTokens","inputs":[{"name":"token","type":"address","internalType":"address"},{"name":"recipient","type":"address","internalType":"address"},{"name":"amount","type":"uint256","internalType":"uint256"}],"outputs":[],"stateMutability":"nonpayable"},{"type":"event","name":"NonceInvalidated","inputs":[{"name":"eoa","type":"address","indexed":true,"internalType":"address"},{"name":"nonce","type":"uint256","indexed":false,"internalType":"uint256"}],"anonymous":false},{"type":"event","name":"OwnershipHandoverCanceled","inputs":[{"name":"pendingOwner","type":"address","indexed":true,"internalType":"address"}],"anonymous":false},{"type":"event","name":"OwnershipHandoverRequested","inputs":[{"name":"pendingOwner","type":"address","indexed":true,"internalType":"address"}],"anonymous":false},{"type":"event","name":"OwnershipTransferred","inputs":[{"name":"oldOwner","type":"address","indexed":true,"internalType":"address"},{"name":"newOwner","type":"address","indexed":true,"internalType":"address"}],"anonymous":false},{"type":"event","name":"UserOpExecuted","inputs":[{"name":"eoa","type":"address","indexed":true,"internalType":"address"},{"name":"nonce","type":"uint256","indexed":false,"internalType":"uint256"},{"name":"err","type":"bytes4","indexed":false,"internalType":"bytes4"}],"anonymous":false},{"type":"error","name":"AlreadyInitialized","inputs":[]},{"type":"error","name":"CallError","inputs":[]},{"type":"error","name":"FnSelectorNotRecognized","inputs":[]},{"type":"error","name":"InsufficientGas","inputs":[]},{"type":"error","name":"InvalidNonce","inputs":[]},{"type":"error","name":"NewOwnerIsZeroAddress","inputs":[]},{"type":"error","name":"NewSequenceMustBeLarger","inputs":[]},{"type":"error","name":"NoHandoverRequest","inputs":[]},{"type":"error","name":"NoRevertEncoutered","inputs":[]},{"type":"error","name":"OrderAlreadyFilled","inputs":[]},{"type":"error","name":"PaymentError","inputs":[]},{"type":"error","name":"Reentrancy","inputs":[]},{"type":"error","name":"SimulationResult","inputs":[{"name":"gUsed","type":"uint256","internalType":"uint256"},{"name":"err","type":"bytes4","internalType":"bytes4"}]},{"type":"error","name":"Unauthorized","inputs":[]},{"type":"error","name":"UnauthorizedCallContext","inputs":[]},{"type":"error","name":"VerificationError","inputs":[]},{"type":"error","name":"VerifiedCallError","inputs":[]}],"bytecode":{"object":"0x6101406040523061012052348015610015575f5ffd5b50306080524660a052606080610064604080518082018252600a815269115b9d1c9e541bda5b9d60b21b60208083019190915282518084019093526005835264302e302e3160d81b9083015291565b815160209283012081519183019190912060c082905260e0819052604080517f8b73c3c69bb8fe3d512ecc4cf759cc79239f7b179b0ffacaa9a75d522b39400f8152938401929092529082015246606082015230608082015260a0902061010052506100cd9050565b60805160a05160c05160e0516101005161012051611ba96101145f395f6107bd01525f6114f501525f6115af01525f61158901525f61153901525f6115160152611ba95ff3fe608060405260043610610138575f3560e01c806384b0196e116100aa578063b70e36f01161006e578063b70e36f0146104d1578063dd139f5d146104f0578063f04e283e1461051f578063f2fde38b14610532578063fcd4e70714610545578063fee81cf41461056d5761013f565b806384b0196e146103a0578063874dfaaf146103c75780638da5cb5b146103fa57806395b4f04014610425578063b1d0e10b146104be5761013f565b806344471415116100fc578063444714151461032b57806354d1f13d1461034b5780635da4d979146103535780635e35359e14610366578063715018a61461038557806382e2c43f1461038d5761013f565b806309c5eabe1461021a5780631a912f3e1461024b57806320606b701461028c57806325692962146102bf57806335567e1a146102c75761013f565b3661013f57005b60048035015f3560e01c631a3de5c381900361017457333014610160575f5ffd5b5f61016a8361059e565b9050805f5260205ff35b8063e235a92a036101c45733301461018a575f5ffd5b5f5f610195846106b1565b91509150816101b757604051633ef2c2cd60e21b815260040160405180910390fd5b6101c284825f610734565b005b8063fc90218d03610201576101d76107ba565b5f6101e5638b78c6d8195490565b6001600160a01b0316146101f557005b6004356101c2816107eb565b604051631e085ca760e11b815260040160405180910390fd5b61022d6102283660046117e8565b610827565b6040516001600160e01b031990911681526020015b60405180910390f35b348015610256575f5ffd5b5061027e7f84fa2cf05cd88e992eae77e851af68a4ee278dcff6ef504e487a55b3baadfbe581565b604051908152602001610242565b348015610297575f5ffd5b5061027e7f8b73c3c69bb8fe3d512ecc4cf759cc79239f7b179b0ffacaa9a75d522b39400f81565b6101c261089d565b3480156102d2575f5ffd5b5061027e6102e1366004611841565b6001600160a01b03919091165f9081526847a69e8902384d5aa1602090815260408083206001600160c01b0385168452909152908190205491901b67ffffffffffffffff19161790565b61033e610339366004611881565b6108e9565b60405161024291906118f0565b6101c26109ca565b6101c26103613660046117e8565b610a03565b348015610371575f5ffd5b506101c261038036600461193c565b610a76565b6101c2610a89565b61022d61039b366004611976565b610a9a565b3480156103ab575f5ffd5b506103b4610b52565b6040516102429796959493929190611a1b565b3480156103d2575f5ffd5b5061027e7fa4d40a46e03a4a680843fcbc2b3e68b95946b4c85520ac6d413b6b1db1d1c16f81565b348015610405575f5ffd5b50638b78c6d819546040516001600160a01b039091168152602001610242565b348015610430575f5ffd5b5061049661043f366004611ab1565b6001600160a01b03919091165f8181526847a69e8902384d5aa16020908152604080832085821c84528252808320549383526847a69e8902384d5aa282528083209483529390529190912054909160e09190911b90565b604080516001600160401b0390931683526001600160e01b0319909116602083015201610242565b6101c26104cc3660046117e8565b610b78565b3480156104dc575f5ffd5b506101c26104eb366004611ad9565b610c00565b3480156104fb575f5ffd5b5061050f61050a366004611ad9565b610c92565b6040519015158152602001610242565b6101c261052d366004611af0565b610cc7565b6101c2610540366004611af0565b610d01565b348015610550575f5ffd5b5061055a61c1d081565b60405161ffff9091168152602001610242565b348015610578575f5ffd5b5061027e610587366004611af0565b63389a75e1600c9081525f91909152602090205490565b60c0810135806105ad57919050565b5f6105be60a0840160808501611af0565b90505f6105da6105ce8330610d27565b8481019081105f031790565b90505f6105ea6020860186611af0565b90505f61060c6106006080880160608901611af0565b83606082901b15021790565b90508560e001358511156106335760405163abab8fc960e01b815260040160405180910390fd5b6040516356298c9881528460601b60601c60208201523060408201528560608201528260601b60601c60808201526004360380600460a08401375f5f82608401601c85015f875af1505050826106898530610d27565b10156106a85760405163abab8fc960e01b815260040160405180910390fd5b50505050919050565b5f5f5f6106bd84610d58565b9050365f6106cf610140870187611b09565b90925090505f6106e26020880188611af0565b9050604051630cef73b481528460208201526040808201528260608201528284608083013760405f60648501601c8401855afa96505085603f3d111660015f5114169550602051945050505050915091565b5f610773690100000000007821000160b01b6107536020870187611b09565b604080516020810189905201604051602081830303815290604052610f5a565b90505f6107836020860186611af0565b90505f5f8351846020015f855af16107b357826107a757636c9d47e85f526004601cfd5b3d5f6040513e3d604051fd5b5050505050565b307f0000000000000000000000000000000000000000000000000000000000000000036107e9576107e9610f97565b565b6001600160a01b0316638b78c6d819819055805f7f8be0079c531659141344cd1fd0a4f28419497f9722a3daafe3b4186f6b6457e08180a35b50565b5f688000000000ab143c065c156108455763ab143c065f526004601cfd5b30688000000000ab143c065d61085b8383610fa4565b91505f90505b1561088a57688000000000ab143c0646600103610880575f815d610884565b8081555b50610897565b5f688000000000ab143c065d5b92915050565b5f6202a3006001600160401b03164201905063389a75e1600c52335f52806020600c2055337fdbf36a107da19e49527a7176a1babf963b4b0ff8cde35ee35d6cd8f1f9ac7e1d5f5fa250565b6060688000000000ab143c065c156109085763ab143c065f526004601cfd5b30688000000000ab143c065d816001600160401b0381111561092c5761092c611b4b565b604051908082528060200260200182016040528015610955578160200160208202803683370190505b5090505f5b828110156109c35761098e84848381811061097757610977611b5f565b90506020028101906109899190611b09565b610fa4565b90508282815181106109a2576109a2611b5f565b6001600160e01b03199092166020928302919091019091015260010161095a565b505f610861565b63389a75e1600c52335f525f6020600c2055337ffa7b8eab7da67f412cc9575ed43464468f9bfbae89d1675917346ca6d8fe3c925f5fa2565b688000000000ab143c065c15610a205763ab143c065f526004601cfd5b30688000000000ab143c065d5f5f610a388484610fa4565b604051635b009b4360e11b8152600481018390526001600160e01b031982166024820152919350915060440160405180910390fd5b505050565b5050565b610a7e6112b6565b610a6d8383836112d0565b610a916112b6565b6107e95f6112f3565b5f8515610aee576847a69e8902384d5aa3602052600886901c5f908152604090208054600160ff891681811b9092189283905591901c16610aee5760405163ee3b3d4b60e01b815260040160405180910390fd5b6060841015610afb575f5ffd5b365f610b0887875f611330565b909250905060208701356040880135365f610b2486868361136c565b90925090508135610b3785338387611393565b610b418787610827565b9d9c50505050505050505050505050565b600f60f81b6060805f808083610b666113c2565b97989097965046955030945091925090565b688000000000ab143c065c15610b955763ab143c065f526004601cfd5b30688000000000ab143c065d36610bac8383611402565b90505f5f610bb9836106b1565b9150915081610bdb57604051633ef2c2cd60e21b815260040160405180910390fd5b610be783826001610734565b6040516313dd48e960e31b815260040160405180910390fd5b335f9081526847a69e8902384d5aa16020908152604080832084821c8452909152902080546001600160401b03831611610c4d576040516312ee5c9360e01b815260040160405180910390fd5b6001600160401b038216815560405182815233907f1800cd2301fbc20790ed94f3d55a28ef2306a9c31cd3c72b5b71b6e4cf5c62419060200160405180910390a25050565b5f81610c9f57505f919050565b600882901c5f9081526847a69e8902384d5aa3602052604090205460ff83161c600116610897565b610ccf6112b6565b63389a75e1600c52805f526020600c208054421115610cf557636f5e88185f526004601cfd5b5f9055610824816112f3565b610d096112b6565b8060601b610d1e57637448fbae5f526004601cfd5b610824816112f3565b5f6001600160a01b038316610d4757506001600160a01b03811631610897565b610d518383611422565b9392505050565b5f3681610d70610d6b6020860186611b09565b61144c565b604080518281526001830160051b810190915291935091505f5b808314610e2b57600581901b8401358401803590602080820135916040810135019081019035610e1b85610e0c7f84fa2cf05cd88e992eae77e851af68a4ee278dcff6ef504e487a55b3baadfbe56001600160a01b03881687610ded88886114e2565b6040805194855260208501939093529183015260608201526080902090565b600190910160051b8801528690565b5050505050806001019050610d8a565b5060408051600a8152610160810182527fa4d40a46e03a4a680843fcbc2b3e68b95946b4c85520ac6d413b6b1db1d1c16f60208201529086013560f01c61c1d01490610e836001835b600190910160051b8301528190565b50610eae6002610e9660208a018a611af0565b6001600160a01b0316600190910160051b8301528190565b50825160051b6020840120610ec590600390610e74565b50604087013560a0820152610ee56005610e9660808a0160608b01611af0565b50610efb6006610e9660a08a0160808b01611af0565b5060e087013561010082015261010087013561012082015261012087013561014082015281610f3c57805160051b6020820120610f37906114f3565b610f4f565b805160051b6020820120610f4f90611609565b979650505050505050565b6060610f6784848461167d565b905080516064820391506040604483015285602483015263e9ae5c53600483015280606401825250949350505050565b639f03a0265f526004601cfd5b5f5f36610fb18585611402565b90506101208101355f5a90505f620186a0830183811082031760065a603f02901c1015610ff1576040516307099c5360e21b815260040160405180910390fd5b60408401355f6847a69e8902384d5aa15f61100f6020890189611af0565b6001600160a01b0316815260208082019290925260409081015f90812085831c8252909252902080546001810190915590506001600160401b038216811461105c57633ab3447f60e11b96505b5050846110f35760405187896020830137601c810160248901631a3de5c383525f5f5260205f82845f308b620186a010620186a08d18028c18f16110b6575f519750876110ae5763abab8fc960e01b97505b5050506110f3565b5f5193505a850363e235a92a84525f5f5260205f83855f30868d11878e0302f16110ee575f519850886110ee57632b536c8960e21b98505b505050505b6111006020850185611af0565b6001600160a01b03167f5faf34c30b432306c2e15b51580b85dc0f88095cbfc8232fe6e1ff4f0e1f0a728560400135876040516111519291909182526001600160e01b031916602082015260400190565b60405180910390a2611163825a900390565b955061010084013580155f9081039091179061119f8361c3508a018a81108403178085028581049091148515175f190117808218908211021890565b90505f6111c16111b560c0890160a08a01611af0565b30606082901b15021790565b9050306001600160a01b038216141582151516156111f3576111f36111ec60a0890160808a01611af0565b82846112d0565b818411156112415761124161120e60a0890160808a01611af0565b61123961122160808b0160608c01611af0565b61122e60208c018c611af0565b606082901b15021790565b8487036112d0565b6001600160e01b03198816156112a857876847a69e8902384d5aa25f61126a60208b018b611af0565b6001600160a01b0316815260208082019290925260409081015f9081208b83013582529092529020805463ffffffff191660e09290921c9190911790555b505050505050509250929050565b638b78c6d8195433146107e9576382b429005f526004601cfd5b6001600160a01b0383166112e857610a6d82826116e8565b610a6d838383611701565b638b78c6d81980546001600160a01b039092169182907f8be0079c531659141344cd1fd0a4f28419497f9722a3daafe3b4186f6b6457e05f80a355565b828101358084016020810191903590601f198501908682178117831760401c8382018310838711171715611362575f82fd5b5050935093915050565b828101358084019080840390601f19850190868217811760401c8286111715611362575f82fd5b6001600160a01b0384166113b0576113ab82826116e8565b6113bc565b6113bc8484848461174b565b50505050565b604080518082018252600a815269115b9d1c9e541bda5b9d60b21b60208083019190915282518084019093526005835264302e302e3160d81b9083015291565b813580830190604081901c60208410171561141b575f5ffd5b5092915050565b5f816014526370a0823160601b5f5260208060246010865afa601f3d111660205102905092915050565b365f833580850160208587010360208201945081359350808460051b8301118360401c17156114825763ba597e7e5f526004601cfd5b83156114d8578392505b6001830392508260051b850135915081850160408101358082018381358201118460408501111782861782351760401c17156114cf5763ba597e7e5f526004601cfd5b5050508261148c575b5050509250929050565b5f8183604051375060405120919050565b7f00000000000000000000000000000000000000000000000000000000000000007f000000000000000000000000000000000000000000000000000000000000000030147f00000000000000000000000000000000000000000000000000000000000000004614166115e65750604080517f8b73c3c69bb8fe3d512ecc4cf759cc79239f7b179b0ffacaa9a75d522b39400f81527f000000000000000000000000000000000000000000000000000000000000000060208201527f00000000000000000000000000000000000000000000000000000000000000009181019190915246606082015230608082015260a090205b6719010000000000005f5280601a5281603a52604260182090505f603a52919050565b5f5f5f6116146113c2565b915091506040517f91ab3d17e3a50a9d89e63fd30b92be7f5336b03b287bb946787a83a9d62a27665f5282516020840120602052815160208301206040523060605260805f206020526119015f52846040526042601e20935080604052505f6060525050919050565b60606040516064019050833580840360406020840152808287016060850137806040016040840152806060840101915050808303816020018451015b8183015183526020830192508083106116b9576020840183038452604036823750506020016040529392505050565b5f385f3884865af1610a725763b12d13eb5f526004601cfd5b816014528060345263a9059cbb60601b5f5260205f604460105f875af18060015f51141661174157803d853b151710611741576390b8ec185f526004601cfd5b505f603452505050565b60405181606052826040528360601b602c526323b872dd60601b600c5260205f6064601c5f895af18060015f51141661179657803d873b15171061179657637939f4245f526004601cfd5b505f60605260405250505050565b5f5f83601f8401126117b4575f5ffd5b5081356001600160401b038111156117ca575f5ffd5b6020830191508360208285010111156117e1575f5ffd5b9250929050565b5f5f602083850312156117f9575f5ffd5b82356001600160401b0381111561180e575f5ffd5b61181a858286016117a4565b90969095509350505050565b80356001600160a01b038116811461183c575f5ffd5b919050565b5f5f60408385031215611852575f5ffd5b61185b83611826565b915060208301356001600160c01b0381168114611876575f5ffd5b809150509250929050565b5f5f60208385031215611892575f5ffd5b82356001600160401b038111156118a7575f5ffd5b8301601f810185136118b7575f5ffd5b80356001600160401b038111156118cc575f5ffd5b8560208260051b84010111156118e0575f5ffd5b6020919091019590945092505050565b602080825282518282018190525f918401906040840190835b818110156119315783516001600160e01b031916835260209384019390920191600101611909565b509095945050505050565b5f5f5f6060848603121561194e575f5ffd5b61195784611826565b925061196560208501611826565b929592945050506040919091013590565b5f5f5f5f5f6060868803121561198a575f5ffd5b8535945060208601356001600160401b038111156119a6575f5ffd5b6119b2888289016117a4565b90955093505060408601356001600160401b038111156119d0575f5ffd5b6119dc888289016117a4565b969995985093965092949392505050565b5f81518084528060208401602086015e5f602082860101526020601f19601f83011685010191505092915050565b60ff60f81b8816815260e060208201525f611a3960e08301896119ed565b8281036040840152611a4b81896119ed565b606084018890526001600160a01b038716608085015260a0840186905283810360c0850152845180825260208087019350909101905f5b81811015611aa0578351835260209384019390920191600101611a82565b50909b9a5050505050505050505050565b5f5f60408385031215611ac2575f5ffd5b611acb83611826565b946020939093013593505050565b5f60208284031215611ae9575f5ffd5b5035919050565b5f60208284031215611b00575f5ffd5b610d5182611826565b5f5f8335601e19843603018112611b1e575f5ffd5b8301803591506001600160401b03821115611b37575f5ffd5b6020019150368190038213156117e1575f5ffd5b634e487b7160e01b5f52604160045260245ffd5b634e487b7160e01b5f52603260045260245ffdfea2646970667358221220400d85daa847d890c7c381ec08a48f3993539684a332ff5e85c0674a04e5b4bb64736f6c634300081c0033","linkReferences":{}},"methodIdentifiers":{"CALL_TYPEHASH()":"1a912f3e","DOMAIN_TYPEHASH()":"20606b70","MULTICHAIN_NONCE_PREFIX()":"fcd4e707","USER_OP_TYPEHASH()":"874dfaaf","cancelOwnershipHandover()":"54d1f13d","completeOwnershipHandover(address)":"f04e283e","eip712Domain()":"84b0196e","execute(bytes)":"09c5eabe","execute(bytes[])":"44471415","fill(bytes32,bytes,bytes)":"82e2c43f","getNonce(address,uint192)":"35567e1a","invalidateNonce(uint256)":"b70e36f0","nonceStatus(address,uint256)":"95b4f040","orderIdIsFilled(bytes32)":"dd139f5d","owner()":"8da5cb5b","ownershipHandoverExpiresAt(address)":"fee81cf4","renounceOwnership()":"715018a6","requestOwnershipHandover()":"25692962","simulateExecute(bytes)":"5da4d979","simulateFailedVerifyAndCall(bytes)":"b1d0e10b","transferOwnership(address)":"f2fde38b","withdrawTokens(address,address,uint256)":"5e35359e"},"id":55}